{
  "contractName": "SmartVoting",
  "abi": [
    {
      "constant": true,
      "inputs": [
        {
          "name": "electionId",
          "type": "uint256"
        }
      ],
      "name": "getElectionEnd",
      "outputs": [
        {
          "name": "",
          "type": "uint256"
        }
      ],
      "payable": false,
      "stateMutability": "view",
      "type": "function"
    },
    {
      "constant": true,
      "inputs": [
        {
          "name": "electionId",
          "type": "uint256"
        }
      ],
      "name": "getElectionStart",
      "outputs": [
        {
          "name": "",
          "type": "uint256"
        }
      ],
      "payable": false,
      "stateMutability": "view",
      "type": "function"
    },
    {
      "constant": false,
      "inputs": [
        {
          "name": "cands",
          "type": "bytes32[]"
        },
        {
          "name": "vl",
          "type": "address[]"
        },
        {
          "name": "begin",
          "type": "uint256"
        },
        {
          "name": "deadline",
          "type": "uint256"
        }
      ],
      "name": "createElection",
      "outputs": [
        {
          "name": "",
          "type": "uint256"
        }
      ],
      "payable": false,
      "stateMutability": "nonpayable",
      "type": "function"
    },
    {
      "constant": true,
      "inputs": [
        {
          "name": "electionId",
          "type": "uint256"
        }
      ],
      "name": "getElectionSecondCand",
      "outputs": [
        {
          "name": "",
          "type": "bytes32"
        }
      ],
      "payable": false,
      "stateMutability": "view",
      "type": "function"
    },
    {
      "constant": true,
      "inputs": [
        {
          "name": "electionId",
          "type": "uint256"
        }
      ],
      "name": "isActive",
      "outputs": [
        {
          "name": "",
          "type": "bool"
        }
      ],
      "payable": false,
      "stateMutability": "view",
      "type": "function"
    },
    {
      "constant": true,
      "inputs": [
        {
          "name": "electionId",
          "type": "uint256"
        },
        {
          "name": "candidateName",
          "type": "bytes32"
        }
      ],
      "name": "getVoteNumber",
      "outputs": [
        {
          "name": "",
          "type": "uint256"
        }
      ],
      "payable": false,
      "stateMutability": "view",
      "type": "function"
    },
    {
      "constant": true,
      "inputs": [
        {
          "name": "va",
          "type": "address"
        }
      ],
      "name": "getElectionId",
      "outputs": [
        {
          "name": "",
          "type": "uint256"
        }
      ],
      "payable": false,
      "stateMutability": "view",
      "type": "function"
    },
    {
      "constant": true,
      "inputs": [
        {
          "name": "voterAddress",
          "type": "address"
        }
      ],
      "name": "isVoted",
      "outputs": [
        {
          "name": "",
          "type": "bool"
        }
      ],
      "payable": false,
      "stateMutability": "view",
      "type": "function"
    },
    {
      "constant": true,
      "inputs": [],
      "name": "numberOfElections",
      "outputs": [
        {
          "name": "",
          "type": "uint256"
        }
      ],
      "payable": false,
      "stateMutability": "view",
      "type": "function"
    },
    {
      "constant": false,
      "inputs": [
        {
          "name": "candidateName",
          "type": "bytes32"
        },
        {
          "name": "electionId",
          "type": "uint256"
        }
      ],
      "name": "voteFor",
      "outputs": [],
      "payable": false,
      "stateMutability": "nonpayable",
      "type": "function"
    }
  ],
  "bytecode": "0x6060604052341561000f57600080fd5b61087f8061001e6000396000f3006060604052600436106100a4576000357c0100000000000000000000000000000000000000000000000000000000900463ffffffff16806352158adc146100a95780635aad138d146100e05780635c18a93a1461011757806381a132ad146101d757806382afd23b14610216578063b2622af014610251578063b62e9f4114610295578063cbff75cb146102e2578063cdc389f614610333578063f30f68531461035c575b600080fd5b34156100b457600080fd5b6100ca600480803590602001909190505061038c565b6040518082815260200191505060405180910390f35b34156100eb57600080fd5b61010160048080359060200190919050506103ac565b6040518082815260200191505060405180910390f35b341561012257600080fd5b6101c1600480803590602001908201803590602001908080602002602001604051908101604052809392919081815260200183836020028082843782019150505050505091908035906020019082018035906020019080806020026020016040519081016040528093929190818152602001838360200280828437820191505050505050919080359060200190919080359060200190919050506103cc565b6040518082815260200191505060405180910390f35b34156101e257600080fd5b6101f86004808035906020019091905050610597565b60405180826000191660001916815260200191505060405180910390f35b341561022157600080fd5b61023760048080359060200190919050506105d0565b604051808215151515815260200191505060405180910390f35b341561025c57600080fd5b61027f600480803590602001909190803560001916906020019091905050610613565b6040518082815260200191505060405180910390f35b34156102a057600080fd5b6102cc600480803573ffffffffffffffffffffffffffffffffffffffff16906020019091905050610664565b6040518082815260200191505060405180910390f35b34156102ed57600080fd5b610319600480803573ffffffffffffffffffffffffffffffffffffffff169060200190919050506106b0565b604051808215151515815260200191505060405180910390f35b341561033e57600080fd5b610346610709565b6040518082815260200191505060405180910390f35b341561036757600080fd5b61038a60048080356000191690602001909190803590602001909190505061070f565b005b600060036000838152602001908152602001600020600201549050919050565b600060036000838152602001908152602001600020600101549050919050565b6000806000808154809291906001019190505550608060405190810160405280600054815260200185815260200184815260200187815250600360008054815260200190815260200160002060008201518160000155602082015181600101556040820151816002015560608201518160030190805190602001906104529291906107db565b50905050600090505b845181101561058957606060405190810160405280868381518110151561047e57fe5b9060200190602002015173ffffffffffffffffffffffffffffffffffffffff1681526020016000151581526020016000548152506002600087848151811015156104c457fe5b9060200190602002015173ffffffffffffffffffffffffffffffffffffffff1673ffffffffffffffffffffffffffffffffffffffff16815260200190815260200160002060008201518160000160006101000a81548173ffffffffffffffffffffffffffffffffffffffff021916908373ffffffffffffffffffffffffffffffffffffffff16021790555060208201518160000160146101000a81548160ff02191690831515021790555060408201518160010155905050808060010191505061045b565b600054915050949350505050565b60006003600083815260200190815260200160002060030160018154811015156105bd57fe5b9060005260206000209001549050919050565b600042600360008481526020019081526020016000206001015410801561060c5750426003600084815260200190815260200160002060020154115b9050919050565b6000801515610621846105d0565b151514151561062f57600080fd5b600160008481526020019081526020016000206000836000191660001916815260200190815260200160002054905092915050565b6000600260008373ffffffffffffffffffffffffffffffffffffffff1673ffffffffffffffffffffffffffffffffffffffff168152602001908152602001600020600101549050919050565b6000600260008373ffffffffffffffffffffffffffffffffffffffff1673ffffffffffffffffffffffffffffffffffffffff16815260200190815260200160002060000160149054906101000a900460ff169050919050565b60005481565b6000151561071c336106b0565b1515148015610737575060011515610733826105d0565b1515145b151561074257600080fd5b6001600260003373ffffffffffffffffffffffffffffffffffffffff1673ffffffffffffffffffffffffffffffffffffffff16815260200190815260200160002060000160146101000a81548160ff021916908315150217905550600180600083815260200190815260200160002060008460001916600019168152602001908152602001600020600082825401925050819055505050565b82805482825590600052602060002090810192821561081d579160200282015b8281111561081c5782518290600019169055916020019190600101906107fb565b5b50905061082a919061082e565b5090565b61085091905b8082111561084c576000816000905550600101610834565b5090565b905600a165627a7a72305820cd6dea8e804d76ff66e0d8377efecb8ad82030a5f7d4af2e3d859749a159333a0029",
  "source": "pragma solidity ^0.4.18;\n// We have to specify what version of compiler this code will compile with\n\ncontract SmartVoting {\n  uint public numberOfElections;\n  struct Voter {\n      address voterAddress;\n      bool voted;\n      uint electionId;\n  }\n  \n  struct Election {\n      uint electionId;\n      uint start;\n      uint end;\n      bytes32[] candidateList;\n  }\n  \n  mapping(uint => mapping(bytes32 => uint)) votesReceived;\n  mapping(address => Voter) voters;\n  mapping(uint => Election) elections;\n  \n  function getElectionId(address va) public view returns (uint) {\n    return voters[va].electionId;\n  }\n  \n  function voteFor(bytes32 candidateName, uint electionId) public {\n      require(isVoted(msg.sender) == false && isActive(electionId) == true);\n      voters[msg.sender].voted = true;\n      votesReceived[electionId][candidateName] += 1;\n  }\n  \n  function isVoted(address voterAddress) view public returns(bool) {\n      return voters[voterAddress].voted;\n  }\n  \n  function isActive(uint electionId) view public returns(bool) {\n      return elections[electionId].start < block.timestamp && elections[electionId].end > block.timestamp;\n  }\n  \n  function getElectionStart(uint electionId) public view returns(uint) {\n      return elections[electionId].start;\n  }\n  \n  function getElectionEnd(uint electionId) public view returns(uint) {\n      return elections[electionId].end;\n  }\n  \n  function getElectionSecondCand(uint electionId) public view returns(bytes32) {\n      return elections[electionId].candidateList[1];\n  }\n\n  function createElection(bytes32[] cands, address[] vl, uint begin, uint deadline) public returns(uint) {\n      numberOfElections ++;\n      elections[numberOfElections] = Election({\n         electionId: numberOfElections,\n         candidateList: cands,\n         start: begin,\n         end: deadline\n      });\n      for (uint i=0;i < vl.length;i ++) {\n          voters[vl[i]] = Voter({\n              voterAddress: vl[i],\n              voted: false,\n              electionId: numberOfElections\n          });\n      }\n      return numberOfElections;\n  }\n  \n  function getVoteNumber(uint electionId, bytes32 candidateName) public view returns(uint) {\n      require(isActive(electionId) == false);\n      return votesReceived[electionId][candidateName];\n  }\n\n}",
  "sourcePath": "/home/user/workspace/cmpe492/kuzdogan/2/solidity-voting/contracts/Election.sol",
  "compiler": {
    "name": "solc",
    "version": "0.4.18+commit.9cf6e910.Emscripten.clang"
  },
  "schemaVersion": "1.0.1",
  "updatedAt": "2018-01-03T07:30:02.303Z"
}