{
  "contractName": "SmartVoting",
  "abi": [
    {
      "constant": false,
      "inputs": [
        {
          "name": "electionAddress",
          "type": "address"
        },
        {
          "name": "candidateAddress",
          "type": "address"
        }
      ],
      "name": "vote",
      "outputs": [
        {
          "name": "success",
          "type": "bool"
        }
      ],
      "payable": false,
      "stateMutability": "nonpayable",
      "type": "function"
    },
    {
      "constant": true,
      "inputs": [],
      "name": "currNumberOfElections",
      "outputs": [
        {
          "name": "",
          "type": "uint256"
        }
      ],
      "payable": false,
      "stateMutability": "view",
      "type": "function"
    },
    {
      "constant": true,
      "inputs": [],
      "name": "owner",
      "outputs": [
        {
          "name": "",
          "type": "address"
        }
      ],
      "payable": false,
      "stateMutability": "view",
      "type": "function"
    },
    {
      "constant": false,
      "inputs": [
        {
          "name": "startTime",
          "type": "uint256"
        },
        {
          "name": "deadline",
          "type": "uint256"
        },
        {
          "name": "voterAddresses",
          "type": "address[]"
        },
        {
          "name": "candidateAddresses",
          "type": "address[]"
        }
      ],
      "name": "createElection",
      "outputs": [
        {
          "name": "success",
          "type": "bool"
        }
      ],
      "payable": false,
      "stateMutability": "nonpayable",
      "type": "function"
    },
    {
      "inputs": [],
      "payable": false,
      "stateMutability": "nonpayable",
      "type": "constructor"
    }
  ],
  "bytecode": "0x6060604052341561000f57600080fd5b336000806101000a81548173ffffffffffffffffffffffffffffffffffffffff021916908373ffffffffffffffffffffffffffffffffffffffff16021790555060006001819055506106bd806100666000396000f300606060405260043610610062576000357c0100000000000000000000000000000000000000000000000000000000900463ffffffff1680631afa74e5146100675780638035a350146100d75780638da5cb5b14610100578063fe93149614610155575b600080fd5b341561007257600080fd5b6100bd600480803573ffffffffffffffffffffffffffffffffffffffff1690602001909190803573ffffffffffffffffffffffffffffffffffffffff16906020019091905050610219565b604051808215151515815260200191505060405180910390f35b34156100e257600080fd5b6100ea610318565b6040518082815260200191505060405180910390f35b341561010b57600080fd5b61011361031e565b604051808273ffffffffffffffffffffffffffffffffffffffff1673ffffffffffffffffffffffffffffffffffffffff16815260200191505060405180910390f35b341561016057600080fd5b6101ff60048080359060200190919080359060200190919080359060200190820180359060200190808060200260200160405190810160405280939291908181526020018383602002808284378201915050505050509190803590602001908201803590602001908080602002602001604051908101604052809392919081815260200183836020028082843782019150505050505091905050610343565b604051808215151515815260200191505060405180910390f35b600042600260008573ffffffffffffffffffffffffffffffffffffffff1673ffffffffffffffffffffffffffffffffffffffff168152602001908152602001600020600001541080156102ad575042600260008573ffffffffffffffffffffffffffffffffffffffff1673ffffffffffffffffffffffffffffffffffffffff16815260200190815260200160002060020154115b1561030d57600460008373ffffffffffffffffffffffffffffffffffffffff1673ffffffffffffffffffffffffffffffffffffffff1681526020019081526020016000206000016000815480929190600101919050555060019050610312565b600090505b92915050565b60015481565b6000809054906101000a900473ffffffffffffffffffffffffffffffffffffffff1681565b600061034d610574565b600080600091505b85518210156103f7576020604051908101604052806000151581525060036000888581518110151561038357fe5b9060200190602002015173ffffffffffffffffffffffffffffffffffffffff1673ffffffffffffffffffffffffffffffffffffffff16815260200190815260200160002060008201518160000160006101000a81548160ff0219169083151502179055509050508180600101925050610355565b858360600181905250600090505b845181101561048f57602060405190810160405280600081525060046000878481518110151561043157fe5b9060200190602002015173ffffffffffffffffffffffffffffffffffffffff1673ffffffffffffffffffffffffffffffffffffffff168152602001908152602001600020600082015181600001559050508080600101915050610405565b848360800181905250878360000181815250508787038360200181815250508683604001818152505082600260003373ffffffffffffffffffffffffffffffffffffffff1673ffffffffffffffffffffffffffffffffffffffff16815260200190815260200160002060008201518160000155602082015181600101556040820151816002015560608201518160030190805190602001906105329291906105b0565b50608082015181600401908051906020019061054f9291906105b0565b5090505060016000815480929190600101919050555060019350505050949350505050565b60a06040519081016040528060008152602001600081526020016000815260200161059d61063a565b81526020016105aa61063a565b81525090565b828054828255906000526020600020908101928215610629579160200282015b828111156106285782518260006101000a81548173ffffffffffffffffffffffffffffffffffffffff021916908373ffffffffffffffffffffffffffffffffffffffff160217905550916020019190600101906105d0565b5b509050610636919061064e565b5090565b602060405190810160405280600081525090565b61068e91905b8082111561068a57600081816101000a81549073ffffffffffffffffffffffffffffffffffffffff021916905550600101610654565b5090565b905600a165627a7a723058201e869802a73ac0f58aaa5962c57857a340893883234cecf8962cc3c53604b2b20029",
  "source": "pragma solidity ^0.4.6;\n\ncontract SmartVoting {\n    struct Voter {\n        bool voted;\n    }\n    struct Candidate {\n        uint numberOfVotes;\n    }\n    struct Election {\n        uint startTimeOfElection;\n        uint lengthOfElection;\n        uint deadlineOfElection;\n        address[] electionVoters;\n        address[] electionCandidates;\n    }\n    address public owner;\n    uint public currNumberOfElections;\n    mapping(address => Election) elections;\n    mapping(address => Voter) allVoters;\n    mapping(address => Candidate) allCandidates;\n    mapping(address => uint[]) electionResults;\n    function SmartVoting() public {\n        owner = msg.sender;\n        currNumberOfElections = uint(0);\n    }\n    function createElection(uint startTime, uint deadline,address[] voterAddresses, address[] candidateAddresses) public returns(bool success) {\n        Election memory e;\n        for (uint i = 0;i < voterAddresses.length;i ++) {\n            allVoters[voterAddresses[i]] = Voter({ voted: false});\n        }\n        e.electionVoters = voterAddresses;\n        for (uint j = 0;j < candidateAddresses.length;j ++) {\n            allCandidates[candidateAddresses[j]] = Candidate({numberOfVotes: uint(0)});\n        }\n        e.electionCandidates = candidateAddresses;\n        e.startTimeOfElection = startTime;\n        e.lengthOfElection = deadline - startTime;\n        e.deadlineOfElection = deadline;\n        elections[msg.sender] = e;\n        currNumberOfElections ++;\n        return true;\n    }\n    function vote (address electionAddress, address candidateAddress) public returns(bool success) {\n        if (elections[electionAddress].startTimeOfElection < block.timestamp && elections[electionAddress].deadlineOfElection > block.timestamp) {\n            allCandidates[candidateAddress].numberOfVotes ++;\n            return true;\n        }\n        return false;\n    }\n    function getElectionResults(address electionAddress) internal returns(uint[] cnds) {\n        uint[] a;\n        if (elections[electionAddress].deadlineOfElection > block.timestamp) {\n            return a;\n        }\n        for (uint i = 0;i < elections[electionAddress].electionCandidates.length; i++) {\n            electionResults[electionAddress].push(allCandidates[elections[electionAddress].electionCandidates[i]].numberOfVotes);\n        }\n        return electionResults[electionAddress];        \n    }\n}",
  "sourcePath": "/home/kuzdogan/Desktop/solidity-voting/contracts/Election.sol",
  "compiler": {
    "name": "solc",
    "version": "0.4.18+commit.9cf6e910.Emscripten.clang"
  },
  "schemaVersion": "1.0.1",
  "updatedAt": "2017-12-30T17:36:39.013Z"
}